:03000000020006F5
:03005F0002000399
:030003000200A256
:20006200C2B320B4FD30B4FD758A0020B407E58A249B50EE22E58A246950F080E5D2B320A9
:20008200B4FD30B4FD758A0020B40D74DB258A50EE74A9258A40E822E58A246950EA80DF05
:1C00A20075B20875B100759703758902758E00758C00D28C12006212007F80F8FF
:06003500E4787FF6D8FD1F
:200013007900E94400601B7A009000C2780175A000E493F2A308B8000205A0D9F4DAF275D1
:02003300A0FF2C
:20003B007800E84400600A790175A000E4F309D8FC7800E84400600C7900900001E4F0A3C3
:04005B00D8FCD9FAFA
:0D0006007581071200BEE582600302000351
:0400BE007582002225
:00000001FF
